:020000040800F2
:1000000000000220C9350008FD350008FD35000854
:10001000FD350008FD350008FD3500080000000032
:10002000000000000000000000000000FD35000896
:10003000FD35000800000000FD350008FD35000812
:10004000FD350008FD350008FD350008FD350008C8
:10005000FD350008FD350008FD350008FD350008B8
:10006000FD350008FD350008FD350008FD350008A8
:10007000FD350008FD350008FD350008FD35000898
:10008000FD350008FD350008FD35000800000000C2
:10009000000000000000000000000000FD35000826
:1000A000FD350008FD350008FD350008FD35000868
:1000B000FD350008FD350008FD350008FD35000858
:1000C000FD350008FD350008FD350008FD35000848
:1000D000FD350008FD350008FD3500080000000072
:1000E000FD350008FD350008FD3500080000000062
:1000F000000000000000000000000000FD350008C6
:1001000000000000FD350008FD350008FD35000841
:1001100000000000000000000000000000000000DF
:10012000FD350008FD350008FD350008FD350008E7
:10013000FD35000800000000000000000000000085
:10014000000000000000000000000000FD35000875
:10015000FD350008FD350008FD350008FD350008B7
:10016000FD350008FD35000800000000000000001B
:10017000000000000000000000000000000000007F
:1001800000000000FD350008000000000000000035
:10019000FD350008FD35000810B5054C237833B94E
:1001A000044B13B10448AFF300800123237010BD4A
:1001B000580B00200000000018CB000808B5034BC6
:1001C0001BB103490348AFF3008008BD00000000E5
:1001D0005C0B002018CB0008154B002B08BF134BFD
:1001E0009D46A3F5803A00218B460F461348144ADA
:1001F000121A05F0F7FB0F4B002B00D098470E4B5F
:10020000002B00D098470020002104000D000D486D
:10021000002802D00C4803F088F805F0B9FA200055
:10022000290003F044F803F07DF800BF0000080047
:100230000000022000000000A1320008580B00203E
:10024000081200202B33000800000000F0B585B034
:100250000E4604A9012401F8012D1F460A46009408
:100260002346BE21054604F0D3FE58B900903B4614
:100270003246BE21284604F0ECFE003018BF0120B3
:1002800005B0F0BD2046FBE730B58BB00AAC0546A3
:1002900004F8202D0DF10900012205F009FB0023CF
:1002A000009322460223BE21284604F0B1FE00300E
:1002B00018BF01200BB030BD70B52DED028B82B0A0
:1002C00002AD002325F8043D0446012332222946CD
:1002D0008068FFF7BBFF20B1012002B0BDEC028BAC
:1002E00070BD012335222946A0689DF80460FFF700
:1002F000ADFF0028F0D19DF80430A06803F003039F
:1003000046EA032307EE903AF8EEE77AB4EE008A65
:1003100067EE887A0123C4ED037A33222946FFF77A
:1003200095FF0028D8D1012335222946A0689DF8E1
:100330000460FFF78BFF0028CED19DF80430A06841
:10034000C3F3810346EA032307EE903AF8EEE77A17
:10035000022367EE887ABC22C4ED047A2946FFF7AF
:1003600075FF0028B8D19DF805209DF80430A068DD
:1003700003EB0223A382BE2202232946FFF766FF76
:100380000028A9D19DF805209DF80430A06803EB52
:100390000223E382302201230DF10201FFF756FF11
:1003A000002899D1012331220DF10301A068FFF744
:1003B0004DFF002890D10223B6222946A068FFF7FE
:1003C00045FF002888D19DF805209DF80430A068DD
:1003D00003EB02232384BA2202232946FFF736FFC8
:1003E00000287FF479AF9DF805209DF8043003EBD9
:1003F000022363849DF8023007EE103A9DF8033023
:1004000007EE903AB8EE477AF8EE677AF6EE006AB1
:1004100027EE267A67EEA67A84ED067AC4ED077A8F
:100420005BE721B101230F228068FFF70FBF012096
:10043000704713B50123044621220DF1070180689E
:10044000FFF704FF80B99DF80730A06863F07F03D1
:1004500021220DF107018DF80730FFF715FF00305D
:1004600018BF012002B010BD0120FBE773B502AE3A
:10047000002306F8053D04460D46ADF80430202261
:10048000012331468068FFF7E1FE10B1012002B080
:1004900070BD9DF8033003F003038DF8033013BBE8
:1004A000012321223146A068FFF7D0FE0028EDD1BC
:1004B0009DF80330A06823F0010343F001032122DB
:1004C00031468DF80330FFF7DFFE0028DED101232F
:1004D00027223146A068FFF7B9FE0028D6D19DF843
:1004E00003309B07F3D50223A82201A9A068FFF7D8
:1004F000ADFE0028CAD19DF805109DF80430B4F96E
:10050000202094ED066AD4ED076A03EB01231BB2A9
:100510009B1A07EE103AB4F922309B1A07EE903A74
:1005200076EEC66AB8EEC77A27EE267AF8EEE76A64
:10053000C7EE267A9FED127A77EE867A67EE877A93
:10054000FCEEE77A17EE903A1BB207EE903AF8EE1F
:10055000E77AC7EE876AF5EEC06AF1EE10FA08D4C2
:10056000F4EEC76AF1EE10FA06DCC5ED006A002071
:100570008DE7DFED046AF8E785ED007A87E700BFD5
:100580000000C8420000000073B502AD002305F86A
:10059000053D04460E46ADF80430202201232946CD
:1005A0008068FFF753FE10B1012002B070BD9DF8C6
:1005B000033003F003038DF8033013BB0123212222
:1005C0002946A068FFF742FE0028EDD19DF80330D0
:1005D000A06823F0010343F00103212229468DF88E
:1005E0000330FFF751FE0028DED1012327222946E0
:1005F000A068FFF72BFE0028D6D19DF80330DB075B
:10060000F3D50223AA2201A9A068FFF71FFE002844
:10061000CAD19DF805109DF80430B4F91420D4ED2A
:10062000037A03EB01231BB29B1A07EE103AB4F9CD
:1006300016309B1A06EE903AB8EEC77AF8EEE66AE4
:1006400087EE266A94ED047A37EE677AE6EE077A4B
:100650009FED087A67EE877AFDEEE77A17EE903A1B
:100660001BB207EE903AF8EEE77AC7EE876AC6ED5E
:10067000006A9AE70000C84213B50123044620220D
:100680000DF107018068FFF7E1FD80B99DF80730A3
:10069000A06863F07F0320220DF107018DF8073079
:1006A000FFF7F2FD003018BF012002B010BD01209D
:1006B000FBE737B5002304460D468DF80730FFF7FA
:1006C000DBFF10B1012003B030BD2046FFF7F4FD81
:1006D0000028F7D1012320220DF10701A068FFF7C0
:1006E000B5FD0028EED19DF807306A79A06823F0A7
:1006F000030313430DF1070120228DF80730FFF7A4
:10070000C3FD003018BF0120DDE713B50123044607
:1007100020220DF107018068FFF798FD80B99DF850
:100720000730A06803F07F0320220DF107018DF848
:100730000730FFF7A9FD003018BF012002B010BD3F
:100740000120FBE7F0B585B00E4604A9012401F8AD
:10075000012D1F460A46009423463C21054604F01D
:1007600057FC58B900903B4632463C21284604F0DD
:1007700070FC003018BF012005B0F0BD2046FBE73B
:1007800030B58BB00AAC054604F8202D0DF10900F8
:10079000012205F08DF800230093224602233C211C
:1007A000284604F035FC003018BF01200BB030BDE6
:1007B00073B502AC002304F8013D05460E46012343
:1007C000222221464068FFF7BDFF10B1012002B090
:1007D00070BD9DF807307278686823F003031343F7
:1007E000214622228DF80730FFF7CAFF0028EDD1FD
:1007F0000123202221466868FFF7A4FF0028E5D1E5
:100800009DF807303278686823F01C031343F278B0
:1008100023F060031343214620228DF80730FFF7B1
:10082000AFFF0028D2D10123212221466868FFF7BB
:1008300089FF0028CAD19DF80730B278686823F094
:1008400060031343214621228DF80730FFF798FFFC
:10085000003018BF0120BAE721B101230F22406800
:10086000FFF770BF0120704773B502AC002324F876
:10087000043D06460D460223A82221464068FFF7A4
:1008800061FF10B1012002B070BD9DF805209DF8F8
:100890000430706803EB02232B80AA220223214636
:1008A000FFF750FF0028EDD19DF805209DF804309A
:1008B000706803EB02236B80AC2202232146FFF712
:1008C00041FF0028DED19DF805209DF8043003EBA0
:1008D0000223AB80D7E7000030B585B00C4600237B
:1008E00002A905468DF80730FFF7BEFF10B10120C1
:1008F00005B030BD012321220DF107016868FFF723
:1009000021FF0028F3D19DF8073003F06003202B6E
:1009100033D003D84BB19FED1C7A08E0402B2FD089
:10092000602BF8D19FED197A01E09FED197ABDF99E
:10093000083007EE903AF8EEE77ABDF90A3067EE34
:10094000877A0020FDEEE77AC4ED007A07EE903A50
:10095000F8EEE77ABDF90C3067EE877AFDEEE77ABC
:10096000C4ED017A07EE903AF8EEE77A67EE877AFF
:10097000FDEEE77AC4ED027ABAE79FED067AD6E794
:100980009FED057AD3E700BF00000000E17A143F35
:10099000295C0F3EE17A943EF628DC3E2DE9FF41CA
:1009A0000F4604A9067B01F8012D856801249846AD
:1009B0000A46009423463146284604F029FB60B9D4
:1009C000009043463A463146284604F042FB003048
:1009D00018BF012004B0BDE8F0812046FAE7F0B569
:1009E0001F2B8BB01D468668077B02D901200BB0F8
:1009F000F0BD0AAC0DF1090004F8202D1A4604F0F0
:100A000057FF0023009322466B1C3946304604F002
:100A1000FFFA0028EBD0E9E708B521B101230F2246
:100A2000FFF7BCFF08BD0120FCE713B5012321221D
:100A30000DF107010446FFF7B1FF88B99DF80730B3
:100A400063F07F038DF80730212201230DF10701A8
:100A50002046FFF7C4FF003018BF012002B010BDD0
:100A60000120FBE713B503230C46A82201A9FFF7D9
:100A700095FF88B99DF806309DF805201B0443EAD0
:100A800002239DF8042013431A0248BF43F07F431A
:100A90002360002002B010BD0120FBE713B50C4617
:100AA00002A9002341F8043DFFF7DCFF38B9DDED72
:100AB000017AFAEECA7AC4ED007A02B010BD0120C4
:100AC000FBE713B502230C46AB2201A9FFF766FF33
:100AD00040B99DF805209DF8043003EB02232380E4
:100AE00002B010BD0120FBE713B50C460DF1060165
:100AF000FFF7E7FF88B9BDF90630DFED096A07EEB9
:100B0000103AB8EEC77AC7EE267A9FED067A77EEEE
:100B1000877AC4ED007A02B010BD0120FBE700BF68
:100B20000000F04300002A4213B5012320220DF1FA
:100B300007010446FFF732FF88B99DF8073063F0DC
:100B40007F038DF80730202201230DF10701204695
:100B5000FFF745FF003018BF012002B010BD012093
:100B6000FBE737B5002305460C468DF80730FFF745
:100B7000DBFF10B1012003B030BD012320220DF1B5
:100B800007012846FFF70AFF0028F3D19DF8073038
:100B9000227823F070031343E27823F00803134311
:100BA000227923F004031343627923F001031343F2
:100BB0008DF80730202201230DF107012846FFF7A9
:100BC0000EFF0028D6D1012310220DF1070128467F
:100BD000FFF7E4FE0028CDD19DF80730627823F0BE
:100BE00003031343A27823F00C0313438DF807305B
:100BF000102201230DF107012846FFF7F0FE003017
:100C000018BF0120B7E713B5012320220DF107011A
:100C10000446FFF7C3FE88B99DF8073003F07F0351
:100C20008DF80730202201230DF107012046FFF740
:100C3000D6FE003018BF012002B010BD0120FBE736
:100C4000F0B585B00E4604A9012401F8012D1F4618
:100C50000A4600942346D621054604F0D9F958B92E
:100C600000903B463246D621284604F0F2F9003087
:100C700018BF012005B0F0BD2046FBE730B58BB0B2
:100C80000AAC054604F8202D0DF10900012204F0FC
:100C90000FFE0023009322460223D621284604F0AB
:100CA000B7F9003018BF01200BB030BD21B10123CE
:100CB0000F228068FFF7C4BF0120704773B502ACF4
:100CC000002324F8043D06460D460223A8222146AF
:100CD0008068FFF7B5FF10B1012002B070BD9DF82C
:100CE00005209DF80430B06803EB02232B80AA2274
:100CF00002232146FFF7A4FF0028EDD19DF805202F
:100D00009DF80430B06803EB02236B80AC22022311
:100D10002146FFF795FF0028DED19DF805209DF8BC
:100D2000043003EB0223AB80D7E773B502AC00239A
:100D300024F8043D06460D46022398222146806889
:100D4000FFF77EFF10B1012002B070BD9DF80520B5
:100D50009DF80430B06803EB02232B809A22022313
:100D60002146FFF76DFF0028EDD19DF805209DF885
:100D70000430B06803EB02236B809C2202232146DF
:100D8000FFF75EFF0028DED19DF805209DF80430B6
:100D900003EB0223AB80D7E72DE9F34102AD074611
:100DA000002005F8010D814214BF4FF0080880466D
:100DB000824214BF10240446834214BF20260646F4
:100DC0001F2201232946B868FFF73AFFB0B99DF802
:100DD0000710B86801F0E70141EA08010C4324F06C
:100DE000200434431F2229468DF80740FFF746FFB1
:100DF000003018BF012002B0BDE8F0810120FAE701
:100E00002DE9F34102AD0746002005F8010D8142AE
:100E100014BF4FF008088046824214BF10240446D5
:100E2000834214BF202606461E2201232946B868A5
:100E3000FFF706FFB0B99DF80710B86801F0E701A9
:100E400041EA08010C4324F0200434431E222946C1
:100E50008DF80740FFF712FF003018BF012002B0E5
:100E6000BDE8F0810120FAE713B50C4602A9002382
:100E700001F8013D202201238068FFF7E1FE18BB45
:100E80009DF8073003F0E003602B17D008D8202B23
:100E90000ED0402B10D00BB900222260002009E0B8
:100EA000A02B0DD0C02B0DD0802BF7D1074B00E02D
:100EB000074B236002B010BD064BFAE7064BF8E77C
:100EC000064BF6E7064BF4E70120F3E700006E431C
:100ED00000002041000048420000EE420000EE43C6
:100EE00000006E4437B507EE901AF5EEC07A002484
:100EF000F1EE10FA05468DF8074024D9B2EE047AD7
:100F0000F4EEC77AF1EE10FA37D99FED217AF4EEBC
:100F1000C77AF1EE10FA32D99FED1E7AF4EEC77A55
:100F2000F1EE10FA2DD99FED1C7AF4EEC77AF1EEAE
:100F300010FA28D99FED197AF4EEC77AF1EE10FA7B
:100F400094BFA024C024012320220DF10701A8682A
:100F5000FFF776FEC8B99DF80730A86803F01F03B5
:100F60001C4320220DF107018DF80740FFF786FE94
:100F7000003018BF012003B030BD2024E3E7402437
:100F8000E1E76024DFE78024DDE70120F3E700BF2D
:100F9000000048420000EE4200006E430000EE43B5
:100FA00013B50C4602A9002301F8013D20220123BC
:100FB0008068FFF745FEC0B99DF8073003F01803BD
:100FC000082B10D002D83BB100200AE0102B06D02D
:100FD000182BF9D1064B03E0064A2260F4E7064BD2
:100FE000236002B010BD054BFAE70120F9E700BF0E
:100FF00023DB793E23DB793D23DBF93D5A643B3F1C
:1010000030B585B00C46002302A905460193FFF7D1
:1010100055FE10B1012005B030BD01A92846FFF7EB
:10102000BFFF0028F6D1BDF90830DDED016A07EEFB
:10103000103AB8EEC77ABDF90A3027EE267ABDEE2F
:10104000C77A84ED007A07EE103ABDF90C3007EE4E
:10105000903AB8EEC77AF8EEE77A27EE267A67EE8E
:10106000A67ABDEEC77AFDEEE77A84ED017AC4ED8B
:10107000027AD0E713B50C4602A9002301F8013D1E
:10108000202201238068FFF7DBFDE0B99DF80730DF
:1010900003F01803082B13D002D843B100200DE051
:1010A000102B08D0182BF9D14FF0824305E04FF0F8
:1010B00080422260F2E74FF08143236002B010BD0E
:1010C0004FF08343F9E70120F8E737B507EE901AB0
:1010D000B0EE007AF4EEC77A0024F1EE10FA05467D
:1010E0008DF807400FD9B1EE007AF4EEC77AF1EE31
:1010F00010FA22D9B2EE007AF4EEC77AF1EE10FAC5
:1011000094BF18240824012320220DF10701A868A8
:10111000FFF796FD98B99DF80730A86823F01803EB
:101120001C4320220DF107018DF80740FFF7A6FDB3
:10113000003018BF012003B030BD1024E3E70120C8
:10114000F9E7000013B50C4602A9002301F8013DA0
:10115000102201238068FFF773FD18BB9DF807304C
:1011600003F0E003602B17D008D8202B0ED0402BC3
:1011700010D00BB900222260002009E0A02B0DD076
:10118000C02B0DD0802BF7D1074B00E0074B23601D
:1011900002B010BD064BFAE7064BF8E7064BF6E740
:1011A000064BF4E70120F3E700006E4366666E41EC
:1011B00000006E420000EE420000EE4300006E446C
:1011C00037B507EE901AF5EEC07A0024F1EE10FA6A
:1011D00005468DF8074024D99FED247AF4EEC77AAE
:1011E000F1EE10FA37D99FED227AF4EEC77AF1EEDC
:1011F00010FA32D99FED1F7AF4EEC77AF1EE10FAA9
:101200002DD99FED1D7AF4EEC77AF1EE10FA28D9A8
:101210009FED1A7AF4EEC77AF1EE10FA94BFA0248B
:10122000C024012310220DF10701A868FFF708FD73
:10123000C8B99DF80730A86803F01F031C431022AB
:101240000DF107018DF80740FFF718FD003018BFBA
:10125000012003B030BD2024E3E74024E1E760240F
:10126000DFE78024DDE70120F3E700BF66666E411B
:1012700000006E420000EE4200006E430000EE43AC
:1012800013B50C4602A9002301F8013D10220123E9
:101290008068FFF7D5FC90B99DF8073003F018037C
:1012A000082B07D0182B08D013B9064A226018461D
:1012B00002B010BD044B2360FAE7044BFBE70120AA
:1012C000F6E700BF00000C4100008C4100008C429A
:1012D00030B585B00C46002302A905460193FFF7FF
:1012E00024FD10B1012005B030BD01A92846FFF74B
:1012F000C7FF0028F6D1BDF90830DDED016A07EE21
:10130000103AB8EEC77ABDF90A3027EE267ABDEE5C
:10131000C77A84ED007A07EE103ABDF90C3007EE7B
:10132000903AB8EEC77AF8EEE77A27EE267A67EEBB
:10133000A67ABDEEC77AFDEEE77A84ED017AC4EDB8
:10134000027AD0E713B50C4602A9002301F8013D4B
:10135000102201238068FFF773FC90B99DF80730D5
:1013600003F01803082B07D0182B08D013B9064A2E
:101370002260184602B010BD044B2360FAE7044B0C
:10138000FBE70120F6E700BF000075430000FA43C9
:101390000000FA4437B507EE901A9FED187AF4EE84
:1013A000C77A0024F1EE10FA05468DF8074008D9F7
:1013B0009FED137AF4EEC77AF1EE10FA94BF082489
:1013C0001824012310220DF10701A868FFF738FC4B
:1013D00088B99DF80730A86823F018031C43102231
:1013E0000DF107018DF80740FFF748FC003018BFEA
:1013F000012003B030BD0120FBE700BF00007543B2
:101400000000FA4338B50C4609680546FFF7D8FED8
:1014100008B1012038BD61682846FFF7BBFF0028EE
:10142000F7D1A37A627A217A2846FFF7E9FC0028EF
:10143000EFD1E1682846FFF755FD0028E9D1216981
:101440002846FFF742FE0028E3D1A37D627D217D7F
:101450002846FFF7A1FC003018BF0120DAE7F0B5FD
:1014600085B00E4604A9012401F8012D1F460A4645
:1014700000942346D421054603F0CAFD58B90090D4
:101480003B463246D421284603F0E3FD003018BF26
:10149000012005B0F0BD2046FBE730B58BB00AACAB
:1014A000054604F8202D0DF10900012204F000FA90
:1014B0000023009322460223D421284603F0A8FDEE
:1014C000003018BF01200BB030BD21B101230F2225
:1014D0008068FFF7C4BF0120704737B502AC002316
:1014E00004F8013D05460123122221468068FFF7DA
:1014F000B6FF10B1012003B030BD9DF80730A868D9
:1015000023F0040343F00403122221468DF8073030
:10151000FFF7C3FF0028EDD101230A222146A86866
:10152000FFF79DFF0028E5D19DF80730A86823F05C
:101530007F030A2221468DF80730FFF7AEFF003007
:1015400018BF0120D7E773B502AC002324F8043D8F
:1015500006460D460223282221468068FFF77FFFBA
:1015600010B1012002B070BD9DF805209DF8043037
:10157000B06803EB02232B802A2202232146FFF7C7
:101580006EFF0028EDD19DF805209DF80430B0686D
:1015900003EB02236B802C2202232146FFF75FFF1F
:1015A0000028DED19DF805209DF8043003EB0223CE
:1015B000AB80D7E773B502AC002324F8043D0646A0
:1015C0000D460223222221468068FFF748FF10B112
:1015D000012002B070BD9DF805209DF80430B06870
:1015E00003EB02232B80242202232146FFF737FF3F
:1015F0000028EDD19DF805209DF80430B06803EB7C
:1016000002236B80262202232146FFF728FF0028B1
:10161000DED19DF805209DF8043003EB0223AB805A
:10162000D7E72DE9F34102AD0746002005F8010D8B
:10163000814214BF4FF008088046824214BF102434
:101640000446834214BF2026064618220123294659
:10165000B868FFF704FFB0B99DF80710B86801F04B
:10166000E70141EA08010C4324F020043443182226
:1016700029468DF80740FFF710FF003018BF012002
:1016800002B0BDE8F0810120FAE72DE9F34102AD97
:101690000746002005F8010D814214BF4FF00808ED
:1016A0008046824214BF10240446834214BF202681
:1016B0000646192201232946B868FFF7D0FEB0B9C3
:1016C0009DF80710B86801F0E70141EA08010C43F2
:1016D00024F020043443192229468DF80740FFF7EF
:1016E000DCFE003018BF012002B0BDE8F08101200F
:1016F000FAE7000013B50C4602A9002301F8013DEA
:10170000102201238068FFF7AAFE002836D19DF839
:10171000073003F0F003502B28D00DD8202B21D018
:1017200004D8C3B1102B19D0002019E0302B1BD0E6
:10173000402BF9D1124B12E0802B1BD005D8602B27
:1017400016D0702BF0D10F4B09E0902B14D0A02BAA
:10175000EAD10D4B03E000222260E5E70B4B23604A
:1017600002B010BD0A4BFAE70A4BF8E70A4BF6E75E
:101770000A4BF4E70A4BF2E70A4BF0E70120EFE7E8
:101780000000D042004050440020D04500005041AD
:101790000000D04100005042000050430000D04300
:1017A0000080CF440020504537B507EE901AF5EE83
:1017B000C07A0024F1EE10FA05468DF8074040D9B2
:1017C000B2EE0A7AF4EEC77AF1EE10FA53D9B3EE1C
:1017D0000A7AF4EEC77AF1EE10FA4ED99FED2F7A1D
:1017E000F4EEC77AF1EE10FA49D99FED2D7AF4EEB6
:1017F000C77AF1EE10FA44D99FED2A7AF4EEC77A4F
:10180000F1EE10FA3FD99FED287AF4EEC77AF1EEA7
:1018100010FA3AD99FED257AF4EEC77AF1EE10FA74
:1018200035D99FED237AF4EEC77AF1EE10FA30D96C
:101830009FED207AF4EEC77AF1EE10FA94BF90246F
:10184000A024012310220DF10701A868FFF707FE6D
:1018500008BB9DF80730A86803F00F031C43102253
:101860000DF107018DF80740FFF717FE003018BF94
:10187000012003B030BD1024E3E72024E1E7302449
:10188000DFE74024DDE75024DBE76024D9E770245C
:10189000D7E78024D5E70120EBE700BF00005042E6
:1018A0000000D042000050430000D04300405044AC
:1018B0000080CF440020504513B50C4602A90023F8
:1018C00001F8013D102201238068FFF7C8FDC0B96F
:1018D0009DF8073003F00C030C2B0AD8DFE803F067
:1018E000070909090F0909090B0909090D00064B28
:1018F0002360002006E0054BFAE7054BF8E7054BAF
:10190000F6E7012002B010BD23DB793D23DBF93D72
:1019100023DB793E23DBF93E30B585B00C4600234E
:1019200002A905460193FFF70EFE10B1012005B094
:1019300030BD01A92846FFF7BFFF0028F6D1BDF949
:101940000830DDED016A07EE103AB8EEC77ABDF94E
:101950000A3027EE267ABDEEC77A84ED007A07EECC
:10196000103ABDF90C3007EE903AB8EEC77AF8EEAF
:10197000E77A27EE267A67EEA67ABDEEC77AFDEE05
:10198000E77A84ED017AC4ED027AD0E713B50C460C
:1019900002A9002301F8013D102201238068FFF70E
:1019A0005EFDE0B99DF8073003F00C030C2B0BD85B
:1019B000DFE803F0070A0A0A120A0A0A0C0A0A0AEE
:1019C0000F004FF080432360002009E04FF0814377
:1019D000F9E74FF08243F6E74FF08343F3E7012046
:1019E00002B010BD37B507EE901AB0EE007AF4EEF3
:1019F000C77A0024F1EE10FA05468DF807400FD99A
:101A0000B1EE007AF4EEC77AF1EE10FA22D9B2EE16
:101A1000007AF4EEC77AF1EE10FA94BF0C24042495
:101A2000012310220DF10701A868FFF718FD98B9EE
:101A30009DF80730A86823F00C031C4310220DF119
:101A400007018DF80740FFF728FD003018BF01207F
:101A500003B030BD0824E3E70120F9E713B50C46D5
:101A600002A9002301F8013D112201238068FFF73C
:101A7000F6FC70BB9DF8073003F0F003402B22D03A
:101A80000BD8102B19D002D8A3B1002017E0202BBF
:101A900017D0302BF9D1104B10E0602B15D003D8A4
:101AA000502BF2D10D4B09E0702B10D0802BECD1D4
:101AB0000B4B03E000222260E7E70A4B236002B0F1
:101AC00010BD094BFAE7094BF8E7094BF6E7094B5C
:101AD000F4E70120F3E700BF00005042000050434C
:101AE0000080CF44000050410000D0410000D042AF
:101AF0000000D0430040504437B507EE901AF5EE91
:101B0000C07A0024F1EE10FA05468DF8074032D96C
:101B1000B2EE0A7AF4EEC77AF1EE10FA45D9B3EED6
:101B20000A7AF4EEC77AF1EE10FA40D99FED267AE0
:101B3000F4EEC77AF1EE10FA3BD99FED247AF4EE79
:101B4000C77AF1EE10FA36D99FED217AF4EEC77A12
:101B5000F1EE10FA31D99FED1F7AF4EEC77AF1EE6B
:101B600010FA2CD99FED1C7AF4EEC77AF1EE10FA38
:101B700094BF70248024012311220DF10701A8686D
:101B8000FFF76DFCE8B99DF80730A86803F00F0374
:101B90001C4311220DF107018DF80740FFF77DFC72
:101BA000003018BF012003B030BD1024E3E720242B
:101BB000E1E73024DFE74024DDE75024DBE7602461
:101BC000D9E70120EFE700BF000050420000D042FB
:101BD000000050430000D0430040504473B502ADB4
:101BE000002305F8013D06460C4601231122294633
:101BF0008068FFF734FC10B1012002B070BD9DF881
:101C0000073003F002038DF8073013B1114B236046
:101C1000F3E7012311222946B068FFF720FC0028D2
:101C2000EAD19DF8073003F00C030C2B0AD8DFE84B
:101C300003F0070909090B0909090D0909090F0032
:101C4000054B23600020D8E7044BFAE7044BF8E784
:101C5000044BF6E700008C4000000C4100008C4172
:101C600000000C4200008C4230B585B00C460023C9
:101C700002A905460193FFF79DFC10B1012005B0B4
:101C800030BD01A92846FFF7A9FF0028F6D1BDF90C
:101C90000830DDED016A07EE103AB8EEC77ABDF9FB
:101CA0000A3027EE267ABDEEC77A84ED007A07EE79
:101CB000103ABDF90C3007EE903AB8EEC77AF8EE5C
:101CC000E77A27EE267A67EEA67ABDEEC77AFDEEB2
:101CD000E77A84ED017AC4ED027AD0E773B502ADFC
:101CE000002305F8013D06460C4601231122294632
:101CF0008068FFF7B4FB10B1012002B070BD9DF801
:101D0000073003F002038DF8073013B1114B236045
:101D1000F3E7012311222946B068FFF7A0FB002852
:101D2000EAD19DF8073003F00C030C2B0AD8DFE84A
:101D300003F0070909090B0909090D0909090F0031
:101D4000054B23600020D8E7044BFAE7044BF8E783
:101D5000044BF6E70000FA42000075430000FA4326
:101D600000007A440000FA4470B52DED028B82B079
:101D700008EE101A02ACDFED337A002304F8013DBF
:101D8000B4EEE78AF1EE10FA06464FF001038068E0
:101D90004FF01102214618D8FFF761FB20B1012056
:101DA00002B0BDEC028B70BD9DF8073023F002033A
:101DB00043F002038DF8073011222146B068FFF787
:101DC0006CFB003018BF0120EAE7FFF748FB002852
:101DD000E5D19DF80730B06823F0020311222146B7
:101DE0008DF80730FFF759FB0028D8D1DFED167AC0
:101DF000B4EEE78AF1EE10FA1FD9DFED147AB4EEF3
:101E0000E78AF1EE10FA1AD9DFED117AB4EEE78A1B
:101E1000F1EE10FA94BF08250C250123112221466A
:101E2000B068FFF71CFB0028B9D19DF8070020F02F
:101E30000C0005438DF80750BEE70546EDE7042585
:101E4000EBE700BF0000FA42000075430000FA43D0
:101E500000007A4438B505460C46FFF73EFB08B152
:101E6000012038BD21682846FFF746FE0028F7D13B
:101E700061682846FFF778FF0028F1D1A37A627ADB
:101E8000217A2846FFF701FC0028E9D1E1682846BD
:101E9000FFF78AFC0028E3D121692846FFF7A2FD5D
:101EA0000028DDD1A37D627D217D2846FFF7B9FBA7
:101EB00004460028D4D1014605F10C0003F002F9D4
:101EC0002046CEE713B503680C469B6801A99847E6
:101ED00048B9DDED016A9FED057ADFED057AE6EEA2
:101EE000877AC4ED007A02B010BD00BF6666E63F97
:101EF00000000042704770477047704708B5FEF712
:101F0000F3FD08BDA0F10400F8E708B5FEF73CFBBF
:101F100008BDA0F10400F8E708B5FEF782FA08BD95
:101F2000A0F10400F8E708B5FEF7C3FB08BDA0F177
:101F30000400F8E708B5FEF77CFA08BD08B5FEF71F
:101F4000E4FB08BD10B5044601F008FA204610BDB8
:101F500010B5044601F002FA204610BD10B5044643
:101F600001F0FCF9204610BD10B5044601F0F6F969
:101F7000204610BD08B5FEF779FA08BD08B5FEF792
:101F800073FC08BD08B5FEF7A7FC08BD08B5FEF751
:101F900063FC08BD08B5FEF70BFC08BD08B5FEF7ED
:101FA0003BFD08BDA0F10400F8E708B5FEF7D9FD38
:101FB00008BDA0F10400F8E708B5FEF736FD08BD3E
:101FC00008B5FEF720FE08BD08B5FEF767FD08BDA1
:101FD00008B5FFF77AF808BDA0F10400F8E708B5E6
:101FE000FFF748F808BDA0F10400F8E708B5FEF7D0
:101FF00079FF08BDA0F10400F8E708B5FEF734FF4B
:1020000008BDA0F10400F8E708B5FEF7C9FF08BD58
:10201000A0F10400F8E708B5FEF750FE08BDA0F1F6
:102020000400F8E708B5FEF7EBFF08BDA0F10400D7
:10203000F8E708B5FEF73AFE08BDA0F10400F8E79E
:1020400008B5FFF7DFF908BDA0F10400F8E708B50F
:10205000FFF7A0F908BD08B5FFF774F908BD08B58A
:10206000FFF7AEF808BD08B5FFF76CF808BD08B576
:10207000FFF706F908BD08B5FEF757FE08BD08B51D
:10208000FFF726F908BD08B5FFF7ACFC08BDA0F1C5
:102090000400F8E708B5FFF779FC08BDA0F10400DB
:1020A000F8E708B5FFF780FB08BDA0F10400F8E7EA
:1020B00008B5FFF71FFB08BDA0F10400F8E708B55D
:1020C000FFF7FAFB08BDA0F10400F8E708B5FFF739
:1020D0003AFA08BDA0F10400F8E708B5FFF71CFCC8
:1020E00008BDA0F10400F8E708B5FFF7EEF908BD58
:1020F000A0F10400F8E708B5FFF7ACFE08BDA0F1B9
:102100000400F8E708B5FFF72FFE08BD08B5FFF794
:10211000E5FD08BD08B5FFF7EFFC08BD08B5FFF702
:102120009DFC08BD08B5FFF759FD08BD08B5FFF7D0
:1021300041FA08BD08B5FFF797FD08BD10B5044684
:10214000044B40F8043B23690BB19B689847204639
:1021500010BD00BFC0C6000810B5034B03600446A5
:10216000FFF7ECFF204610BDD8BE000810B50446AE
:10217000FFF7F2FF204601F0F1F8204610BD10B540
:102180000446FFF7DBFF204601F0E8F8204610BDCB
:1021900070B5044601602420164601F0D3F8204BA8
:1021A0002268036000252833C0E90132C0E90355E5
:1021B000C0E90555C0E907556060082001F0C2F884
:1021C0002368184AA060C0E90023102001F0BAF883
:1021D000154B226803602833C0E90132BA23037328
:1021E000E0600C2001F0AEF8104B22680360503321
:1021F000C0E90132731C206102D16561204670BDC7
:10220000502001F09FF80A4B2268036050330546C6
:10221000C0E9013231460C3002F098FFEDE700BF13
:10222000F0BE000830BF000850BF000890BF000893
:102230000CC000081FB504A90023044601F8093D9D
:10224000406803685B689847636880B99DF8072019
:10225000BC2A0CD103228DF80D201A6802A912683D
:1022600018469047B0FA80F0400904B010BD1BB189
:102270001A68184612699047002363600120F4E74A
:1022800013B502A90023044601F8053D80680368E0
:102290005B689847A36880B99DF803203D2A0CD15C
:1022A00002A90A4A41F8042D1A6818461268904794
:1022B000B0FA80F0400902B010BD1BB11A68184690
:1022C000526990470023A3600120F4E71C000040FE
:1022D0001FB504A90023044601F8093DC06803683E
:1022E0005B689847E36898B99DF80720BD2A0FD12D
:1022F0000C4A02924FF48072ADF80C201A6802A9C1
:10230000126818469047B0FA80F0400904B010BD3A
:102310001BB11A681846126990470023E360012038
:10232000F4E700BF1001040810B588B000238DF851
:102330000730436904462BB1206960BB0023236149
:10234000012026E0006903680DF107015B689847EA
:102350000028F1D19DF80730682BEDD11049114BC1
:1023600020690591CDE9021340F2011201234FF0DB
:1023700080410691ADF810208DF81230ADF81C2088
:102380008DF81E30036802A91B689847B0FA80F0E8
:10239000400908B010BD03689B6A9847CEE700BFAC
:1023A0000000EE420000FA4410B5044688B04069CF
:1023B00000238DF8073070B303680DF107015B68E7
:1023C0009847636900BB9DF80720692A1CD1134810
:1023D000134A0590CDE9020240F2011101224FF0AB
:1023E0008040ADF810100690ADF81C108DF812204A
:1023F0008DF81E201A6802A9126818469047B0FA94
:1024000080F0400908B010BD1BB11A681846926AE6
:102410009047002363610120F4E700BF0000D04231
:102420000000FA4410B50446FFF704FF80B12046CF
:10243000FFF726FF60B12046FFF74AFF40B1204674
:10244000FFF7B2FF20B12046BDE81040FFF76CBF98
:10245000002010BD2DE9F041124C23680646884645
:102460001746DBB9D02000F06DFF424605463146E5
:1024700002F076FD0C4B2B6045B1182000F062FF96
:102480003A4606462946FFF783FE2660206828B1B3
:10249000FFF7C8FF10B9054802F080FF2068BDE8CB
:1024A000F08100BF740B0020D8BE000880C0000877
:1024B00010B5054B03605033044643600C3002F006
:1024C00017FE204610BD00BF0CC0000810B5044622
:1024D000FFF7EEFF204600F041FF204610BD000050
:1024E0008FB51A4B1A4C18681A4F03681A4E5B685E
:1024F0001A4D0DF103019847194B186803680DF147
:1025000003015B689847206803680DF103015B686D
:102510009847144B186803680DF103015B689847EE
:102520004FF0804002F0A0FF384603F0A5FA206883
:10253000036801A99B689847DDE9022301993046A9
:1025400003F09AFA284602F08FFFEDE77C0B00209B
:10255000780B00202CC50008B2C00008CDCCCC3DC3
:10256000800B0020840B002008B54FF0FF321821AB
:102570001920FFF76FFF436903B90369054A136028
:10258000054B82681A60054B42681A60044BC268AA
:102590001A6008BD840B0020780B00207C0B002003
:1025A000800B002010B50C4CA268A468B4F1006F39
:1025B00013460CD1131F094A53F8044F42F8044F35
:1025C000074CA242F8D1044A4FF0005393601030F8
:1025D00043F8201010BD00BF00ED00E0FCFFFF1F1E
:1025E00094010020431C10B5044604D10648074955
:1025F000272202F0C1FE2046002100F03DFD04F03C
:102600000F040120A04010BD48C20008ECC1000822
:1026100070B504464B1C0E4621800DD0C1F303104B
:1026200000F0BAFC05463046FFF7DCFF05F1100369
:1026300018356060A360E56070BDB0F9000000F07F
:1026400049BD000038B5B0F90030013305460C46ED
:1026500004D107480749462202F08EFE012CB5F945
:1026600000000CBF21460021BDE8384000F004BD49
:1026700043C20008ECC100082DE9F041154E4C247E
:1026800004FB0064074688460434002545451ED0F7
:102690004C237B430121F35801FA05F21A4213D06F
:1026A0000D4A236B5069D4F818E001FA03F3034292
:1026B0000AD05361206838B1DEF810201342074B6E
:1026C00008BF02211B68984701350434DEE7BDE8E6
:1026D000F08100BF880B0020003C01409C0D0020D1
:1026E00000200121FFF7C8BF01200146FFF7C4BF4A
:1026F00002200121FFF7C0BF03200121FFF7BCBF6B
:1027000004200121FFF7B8BF05200146FFF7B4BF41
:1027100006200146FFF7B0BF2DE9F74F9B464B1C43
:1027200081460D46019266D001F00F0808F1FF3393
:10273000C1F303100E2B09D8DFE803F00C101418B6
:102740001C1C1C1C1C202020202020002C4F00249E
:10275000062616E02B4F0124072612E02A4F0224FA
:1027600008260EE0294F032409260AE0284F0424F6
:102770000A2606E0274F0524172602E0264F0624E6
:10278000282600F009FC4FFA86FA00900721284617
:1027900000F072FC50463946FFF704FF06F01F01B7
:1027A000012202FA01F04FEA5A131C4941F82300B2
:1027B0001B4B89F8006053F828601A49A9F80C509F
:1027C0004C23634302FA06F5CA58C9F804402A4369
:1027D0000020C9F80800CA50132303FB046401EB6E
:1027E0008403009ADA61C3F804B0C3F834800E4B56
:1027F000019A1A6000E0084603B0BDE8F08F00BF00
:10280000E1260008E9260008F1260008F92600085C
:1028100001270008092700081127000800E100E04F
:102820005CC20008880B00209C0D0020F8B54268AF
:10283000124B0546808900F00F014C2453F82130DB
:102840000F495443012606FA03F70E5926EA0706F4
:102850000E51132404FB023301EB83020024546065
:102860009A1D0C3301EB820201EB830354605C6020
:1028700000B2214600F052FCAC60F8BD5CC200081A
:10288000880B002038B5144B1A68116911F0020F3B
:102890001C4607D0D368980704D56FF00203136174
:1028A00002F064FD23681A69510714D5DA685207EB
:1028B00011D56FF00402094D1A615C6A2B68E31AA6
:1028C000B3F57A7F07D300F0B5FE034B2C601B688D
:1028D00004F57A729A6338BD54110020A00D0020CF
:1028E00037B5234B234C002501951A6C42F00802A2
:1028F0001A641A6C02F008020192019A1A6A42F0F4
:1029000008021A621A6A22F008021A6202F0C6F974
:10291000194B23604FF0FF33E360184B184A1B68D4
:10292000B3FBF2F32046013B63602561A56065615E
:1029300002F02CF832201349FFF734FE124B4FF40B
:1029400080225A602946204602F046F8204604219B
:1029500002F042F823680D495A6A0A6002F57A7259
:102960009A63DA68284642F00402DA6003B030BDA8
:102970000038024054110020000C00409C0100204F
:1029800040420F008528000800E100E0A00D002073
:1029900010B5054B9C68204601F0E2F82046BDE8E2
:1029A000104001F005BC00BFA40D002010B5054B80
:1029B0005C68204601F0D4F82046BDE8104001F0E4
:1029C000F7BB00BFA40D002010B5054B1C682046C6
:1029D00001F0C6F82046BDE8104001F0E9BB00BF99
:1029E000A40D002070B590F95E5090F85F40284625
:1029F0000E46FFF7D7FD00210A46284600F03AFEB2
:102A000064B2284600F066FE20463146FFF7CAFD54
:102A100020460021012200F02DFE2046BDE8704036
:102A200000F058BE10B590F85F4090F95E0000F0DD
:102A30005DFE60B2BDE8104000F058BE70B590F881
:102A40005820012A04460E4607D004D3022A0D4B13
:102A500018BF002302E00C4B00E00C4B0C4D46B1BC
:102A6000211D45F8221020461946BDE87040FFF7A9
:102A7000B9BF2046FFF7D6FF94F8583045F82360D9
:102A800070BD00BF91290008C9290008AD290008C0
:102A9000A40D0020154B4A1E9A4270B504460D46FF
:102AA00000F1040605D9124812494FF48F7202F062
:102AB00063FC114BA2681B68B3FBF2F2142353436F
:102AC00062689169890701D5013BFAD14FF48043CF
:102AD00063610023A560A361E360236263622361F5
:102AE000E3613046BDE8704000F0F4BE7F1A060096
:102AF0009CC20008B7C200089C010020194A036864
:102B000012688168B2FBF1F1142243604A4399696B
:102B1000890701D5013AFAD1134A934208D1134BE0
:102B20001A6A42F400121A621A6A22F4001216E0BB
:102B30000F4A934208D10D4B1A6A42F480021A627E
:102B40001A6A22F480020AE00A4A934208D1074B2B
:102B50001A6A42F400021A621A6A22F400021A6225
:102B6000704700BF9C010020005400400038024024
:102B700000580040005C0040F0B5044685B00E46A9
:102B800008465649154602F0BDFB554907462846FA
:102B900002F0B8FBA4F85A600146A4F85C5038462D
:102BA00002F092FB2060013004D14E484E49BB2216
:102BB00002F0E2FB22684D4B9A4223D100273046B7
:102BC000464984F8587002F061FB2846444902F0F7
:102BD0005DFB3046012100F07DFA2846012100F01E
:102BE00079FA1F2384F85E30202384F85F30404B4D
:102BF00001971A6C42F400121A641B6C03F4001360
:102C00000193019B22683B4B9A4224D10127304615
:102C1000324984F8587002F039FB2846304902F0F6
:102C200035FB3046394600F055FA2846394600F063
:102C300051FA212384F85E30222384F85F30002388
:102C400002932B4B1A6C42F480021A641B6C03F43F
:102C500080030293029B2268274B9A4224D10223CD
:102C600084F8583030461D4902F010FB28461C49B4
:102C700002F00CFB3046012100F02CFA284601211D
:102C800000F028FA482384F85E30492384F85F3046
:102C900000230393164B1A6C42F400021A641B6C57
:102CA00003F400030393039B2046FFF727FF20460E
:102CB0001249FFF7EFFE002384F8633084F8623096
:102CC00084F8643084F86130042384F8603020464E
:102CD0000121FFF7B3FE05B0F0BD00BFC0C0000882
:102CE0005CC100080DC30008B7C2000800540040D2
:102CF0000038024000580040005C0040A0860100FF
:102D000073B504461E4694F86030069D042B00F10E
:102D1000040001D0082B04D10DB1042308E00123E5
:102D200006E0013B012B05D80DB1082300E002238A
:102D300084F8603094F860300093002584F8615086
:102D400089B2B3B200F090FE00BB124BA5681B68BD
:102D5000B3FBF5F51E235D43754394F8613013F022
:102D60001E0F05D1013D08D0012002F071FBF4E7F0
:102D70001DB194F86130082B09D02046B4F95A10DF
:102D8000B4F95C20FFF7F8FE002600E02E4630463E
:102D900002B070BD9C01002073B504461E4694F835
:102DA0006030069D042B00F1040001D0082B04D1F3
:102DB0000DB1042308E0012306E0013B012B05D8F7
:102DC0000DB1082300E0022384F8603094F86030ED
:102DD0000093002584F8615089B2B3B200F0E8FD99
:102DE00000BB124BA5681B68B3FBF5F51E235D43C2
:102DF000754394F8613013F01E0F05D1013D08D0E2
:102E0000012002F025FBF4E71DB194F86130082B96
:102E100009D02046B4F95A10B4F95C20FFF7ACFE93
:102E2000002600E02E46304602B070BD9C01002016
:102E300019B9012380F85F307047012908BF80F875
:102E400060107047002380F85F307047002380F8DF
:102E50006030704700F06CBE036F07B5A3B1D0F8C7
:102E600080308BB190F868200AB1082200E002227D
:102E700080F85C2090F85C20B0F864100092C26F7B
:102E80009BB200F0F1FD02E0082380F85D3003B052
:102E90005DF804FB082380F85D30704710B50446E8
:102EA0000438B4F95610B4F95820FFF765FE022330
:102EB00084F85D3010BD0268536823F4E06353600A
:102EC000022380F85D3070471FB502F079FA68463A
:102ED000052102F0D7F9BDF90030013304D10E48C5
:102EE0000E49342202F048FA039B019A1A60962098
:102EF00002F0C8FABDF90030013304D10648074991
:102F0000342202F039FA019B039A1B0413609620C5
:102F100002F0B8FADFE700BF43C2000827C3000889
:102F200030B50546A1B00C4602F04AFA294668467B
:102F3000224604F059F9051E03DC02F06BFA21B0B9
:102F400030BD094B1B6823B908480221032200F059
:102F500055FA00241DF804100448013400F022FB47
:102F6000AC42F7D1E9E700BFC0100020901100206B
:102F70000FB407B504A951F8040B0191FFF7D0FF76
:102F800003B05DF804EB04B0704708B501F086FEAD
:102F9000BDE8084000F034BB7FB50023072853D8B4
:102FA000DFE800F004111E2B3852524500932A4BE3
:102FB0002A481A6B42F001021A631B6B03F00103EB
:102FC0000093009B44E00193234B25481A6B42F089
:102FD00002021A631B6B03F002030193019B37E0AB
:102FE00002931D4B1F481A6B42F004021A631B6BBD
:102FF00003F004030293029B2AE00393164B1A4842
:103000001A6B42F008021A631B6B03F00803039368
:10301000039B1DE00493104B14481A6B42F01002FE
:103020001A631B6B03F010030493049B10E00593D9
:10303000094B0F481A6B42F080021A631B6B03F0B6
:1030400080030593059B03E00A4802F0A7F90020DE
:1030500007B05DF804FB00BF0038024000000240EA
:103060000004024000080240000C02400010024030
:10307000001C02409AC3000830B5431C87B00546C7
:103080000C4604D110481149812202F075F9C5F3AC
:103090000310FFF781FF05F00F050123AB4004F09B
:1030A0000F0201930A4B53F822300293C4F3021328
:1030B0000393C4F3C314032301A90493059400F0FC
:1030C00035FB07B030BD00BF48C20008BBC30008D5
:1030D00010C40008431C70B506460C4604D10D48C8
:1030E0000D49A62202F048F9C6F30310FFF754FF7A
:1030F00006F00F05C1686B0003229A4021EA020224
:10310000032CC260C26828BF00249C401443C460E2
:1031100070BD00BF48C20008BBC3000838B50546F3
:10312000C0F303100C46FFF737FF05F00F02C3682A
:103130005200D34003F0030304F00F01284641EA94
:103140000311BDE83840FFF797BF000008B5084BF2
:103150001B685BB907480221032200F04FF90548BC
:103160004FF41651BDE8084000F0F2B908BD00BFA9
:10317000C01000209011002002284FF0000309DD4C
:10318000C21E074951F8220041F8223020B10368DD
:103190005B681847184670474FF0FF30704700BF14
:1031A000BC0D0020022870B50C4615460FDC0E4BF6
:1031B0001B680BB9FFF7CAFF6619B44205D00B486C
:1031C00014F8011B00F0EEF9F7E7284670BD03384C
:1031D000074B53F8200020B10368BDE870401B681E
:1031E00018474FF0FF3070BDC01000209011002034
:1031F000BC0D0020022810B50C460ADC0B4B1B68E6
:103200000BB9FFF7A3FF0A4800F0B0F920700120C6
:1032100010BD0338074B53F8200020B10368BDE808
:1032200010409B6818474FF0FF3010BDC0100020C1
:1032300090110020BC0D0020022807DD0338064B4A
:1032400053F8200020B10368DB681847012070475D
:103250004FF0FF30704700BFBC0D0020022807DD93
:103260000338064B53F8200020B103681B69184748
:10327000002070474FF0FF30704700BFBC0D0020AA
:10328000022808B504D84FF400534B60002008BD55
:1032900002F0FEF8092303604FF0FF3008BD7047CD
:1032A00008B5FFF772FEFFF7FAFF08BD704708B5D3
:1032B000FFF7FCFFBDE80840FFF712B90C4A13689E
:1032C00010B51844EFF30881884205D3094B0C224E
:1032D0001A604FF0FF3010BD0749096821B1074C53
:1032E000246821448842F1D21060184610BD00BF06
:1032F0009801002004120020B80D0020BC0E002010
:10330000074C08B523680546986802F09FF92368C2
:10331000D86802F09BF90DB1FFF7D6FDFEE700BFBC
:10332000A001002008B5FFF7EBFF012070477047B0
:10333000704708B5FFF7FBFF08BD08B5FFF7F8FFBA
:1033400008BD000010B502F04FFA044610B902485B
:1033500002F024F8204610BDF3C4000808B102F0C2
:103360004BBA7047034610B553F8042B044602B914
:10337000036022689A4204D003480449592201F0AC
:10338000FBFF206810BD00BF2FC5000843C5000823
:10339000426818490346920110B588181C688C5081
:1033A0009A6842600246D96842F8081F196951605C
:1033B0005969916000F110011A6A8A600022C261A5
:1033C000C2848284C2858285B3F91A20013201D178
:1033D000082305E0B3F9183001330CBF04230C2394
:1033E0004B6001F02CFC20B10348BDE8104001F017
:1033F000D5BF10BDC00E002095C50008F0B504462D
:1034000085B008460E464949154601F07BFF4849FC
:103410000746284601F076FF0146384601F054FF82
:103420002060013004D143484349662201F0A4FFE3
:103430002368424A93421DD002F5806293422FD006
:10344000A2F55042934241D13D4B1A6A42F40032F8
:103450001A621A6A22F400321A62002202921A6C6C
:1034600042F400321A641B6C03F400330293029B93
:1034700001232AE0324B5A6A42F010025A625A6A19
:10348000002122F010025A6201915A6C42F010029F
:103490005A645B6C616003F010030193019B15E0BB
:1034A000274B5A6A42F020025A625A6A22F02002DE
:1034B0005A62002203925A6C42F020025A645B6CFA
:1034C00003F020030393039B0523636030461749F1
:1034D00001F0DCFE2846164901F0D8FE721C03D02C
:1034E00030460121FFF7F6FD6B1C03D02846012171
:1034F000FFF7F0FD4FF41653A3600023E360236150
:1035000063612362268365832046FFF741FF2268BB
:103510000C4B9A4207D10C4B0C4801221A602146F1
:103520004C2202F0C5F905B0F0BD00BF98C10008FB
:1035300008C10008ADC50008C9C500080010014059
:103540000038024000440040C010002090110020CC
:103550008160FFF71DBF00004368034A9B01D358F9
:103560001868C0F340107047C00E002038B544689A
:1035700005462846FFF7F0FF0028FAD0A401034BC8
:103580001B595868C0F3080038BD00BFC00E0020AA
:103590004368034A9B01D3581868C0F3C0107047B2
:1035A000C00E002070B5456806460C463046FFF751
:1035B000EFFF0028FAD0AD01024B5B59C4F30804B9
:1035C0005C6070BDC00E0020DFF820D0002103E059
:1035D000074B5B58435004310648074B42189A4248
:1035E000F6D301F033FCFCF7F7FD70470000022032
:1035F00024CB000898010020580B0020FEE70000B3
:1036000008B50B4B1A6842F400721A601A6842F44B
:1036100080621A601A6842F480721A60032000F017
:1036200017F80F20FFF75CF900F07FF8002008BDC5
:10363000003C0240024A136801331360704700BF28
:10364000DC110020014B1868704700BFDC1100201E
:10365000074AD36823F4E0631B041B0C43F0BF63E9
:1036600043F4003300F0070043EA0023D3607047BF
:1036700000ED00E0154BDB68C3F3022370B5C3F126
:1036800007051C1D042D28BF0425062C8CBF033BF9
:103690000023012404FA03F6AC40013C013E214022
:1036A00099403240002842EA01024FEA0212AFBFBD
:1036B00000F1604000F00F00054BD2B2A5BF00F54D
:1036C0006140D2B21A5480F8002370BD00ED00E0D2
:1036D00014ED00E04109012300F01F00024A83407D
:1036E00042F82130704700BF00E100E043090122A9
:1036F00000F01F0020330249824041F82320704728
:1037000000E100E090F83530022B01BF052302688C
:1037100080F83530136815BF802323F0010343651B
:10372000136014BF01200020704770472DE9F3415A
:103730000F6800220123934003EA07059D4240F0F1
:10374000B9804C6824F0100CBCF1020F14D14FEA80
:10375000D20E00EB8E0E02F00706DEF82030B60027
:103760004FF00F0808FA06F823EA08080B69B3407F
:1037700048EA0303CEF820304FEA420E03230668DE
:1037800003FA0EF3DB4303EA060804F0030606FA25
:103790000EF60CF1FF3C48EA0606BCF1010F06608C
:1037A00011D8866803EA060CCE6806FA0EF64CEAD3
:1037B00006068660466826EA050CC4F300169640A5
:1037C0004CEA06064660C66803EA060C8B6803FAF4
:1037D0000EF64CEA0603C360E3006BD5394E0023B6
:1037E0000193D6F844E04EF4804EC6F844E0766C7F
:1037F00006F480460196019E22F0030606F18046FB
:1038000006F59C3602F0030CD6F808804FEA8C0CC3
:103810004FF00F0E0EFA0CFE28EA0E0EDFF8AC8009
:10382000404519D003F1804303F5013398420ED08F
:1038300003F5806398420CD003F5806398420AD068
:1038400003F5806398420CBF0423052304E00123A1
:1038500002E0022300E0032303FA0CF343EA0E0321
:10386000DFF864E0B360DEF80030EE4314F4803F2C
:1038700014BF2B433340CEF80030DEF80430DFF8BD
:1038800048E014F4003F14BF2B433340CEF804301B
:10389000DEF8083014F4801F14BF2B433340CEF8F9
:1038A0000830DEF80C30A40254BF06EA03051D43BD
:1038B000054BDD600132102A7FF43CAF02B0BDE859
:1038C000F08100BF00380240003C0140000002408F
:1038D0007047000070B50446002863D090F83D3072
:1038E00003F0FF021BB980F83C20FFF7F1FF2268CC
:1038F0002D4D242384F83D30136823F00103136019
:1039000000F0C6FF636822682849B0FBF1F1AB42C2
:103910002E4688BF4FF49675516082BF69434FF4BD
:103920007A75B1FBF5F1B34201F10101116208D8DA
:103930005B00B0FBF3F0C0F30B03032B98BF042034
:1039400016E0A16849B903EB4303B0FBF3F0C0F301
:103950000B0363B140F400400AE019214B43B0FB74
:10396000F3F0C0F30B0313B140F4404000E001203A
:10397000216AE369D0610B431360E16823690B435B
:103980009360A16963690B43D360136843F001033B
:10399000136000202023206484F83D30206384F8E5
:1039A0003E0070BD012070BDA086010040420F00A6
:1039B00073B50024019490F83D40069D202C01D061
:1039C00002204DE0042D06D0012D04D090F83C409B
:1039D000012C1AD1F4E7234C46F2A8162468B4FB54
:1039E000F6F6192474430194019C661E01963CB9B5
:1039F0002023046380F83C4080F83D3003202FE012
:103A00000468A469A407EFD4E0E7012480F83C40EF
:103A10000468266826F400662660212680F83D604A
:103A2000102680F83E60002606644385C562416426
:103A30000385036B4262122B00D04BB9042D03D0D7
:103A4000012D01D0122B03D1236843F4807323602E
:103A50006268002342F4E06280F83C3062601846FD
:103A600002B070BD9C01002073B50024019490F851
:103A70003D40069D202C01D0022054E0042D06D0AC
:103A8000012D04D090F83C40012C1AD1F4E7274CCA
:103A900046F2A8162468B4FBF6F619247443019480
:103AA000019C661E01963CB92023046380F83C40CB
:103AB00080F83D30032036E00468A469A407EFD401
:103AC000E0E7012480F83C400468266826F400669C
:103AD0002660222680F83D60102680F83E60002691
:103AE00006644385C56241640385036B4262112B02
:103AF00000D083B9042D06D0012D04D015F5803FE8
:103B000001D0112B07D1236843F48063236023681D
:103B100043F4807323606268002342F4E06280F81B
:103B20003C306260184602B070BD00BF9C010020AE
:103B300090F83D30202B01BF282380F83D300368EA
:103B40001A6801BF42F480621A605A6842F44072F7
:103B500006BF00205A60022070477047704700007F
:103B60000368F0B59D6959695A6890F83E40E4B21F
:103B7000102C8BB002D0402C40F03F8211F0011F7E
:103B80002FD097052DD590F83E40402C05D1046DDF
:103B90000CB9446C0AE0446C0BE00469B4F5804F46
:103BA0000AD190F83D40212C446C02D104F0FE046F
:103BB00015E044F001041AE0046D34B9446C04F4D7
:103BC0004074E41144F0F00409E0046D012C40F06D
:103BD000A580446C04F44074E41144F0F1041C61C9
:103BE0009CE09C4C0C4024B1960502D5446CE4B298
:103BF000F5E7994C0C40002C00F09080940540F1C2
:103C00008D8090F83E40C66AD0F830E090F83D7064
:103C1000222FE4B27BD1076D47B9402C06D1019722
:103C20005C6901949C690194019C77E0046D84B9FE
:103C30000769B7F5404F0CD102945C6902949C6906
:103C40000294029C1C6844F480741C60046D01346E
:103C50005BE0448DA4B234B903945C6903949C691D
:103C60000394039C26E0448DA4B2012C27D1042E9A
:103C700015D0082E13D0BEF1120F10D0C46A022C3A
:103C80001C6814BF24F4806444F480641C60002425
:103C900004945C6904949C690494049C34E01C685A
:103CA00024F480641C60002405945C6905949C697C
:103CB0000594059C1C6844F400741C6024E0448D49
:103CC000A4B2022C15D1C46A022C1C681DBF24F4B6
:103CD00080641C601C6844F4806418BF44F4006471
:103CE0001C60002406945C6906949C690694069CFA
:103CF0000AE01C6844F480641C60002407945C693A
:103D000007949C690794079C0024046506E000243E
:103D100008945C6908949C690894089C4F4E504C28
:103D20002E400C40002E00F0B5804E4D0D40002D71
:103D300064D0510562D5002C60D190F83D20058DEE
:103D400090F83E10C46AD2B2C9B2D5B9212A1AD1AC
:103D5000042C00F08980082C00F0868014F5803F48
:103D600000F082805A6822F4E0625A6090F83D3098
:103D700090F83E2003F003031343036380F83E50A2
:103D800062E0212A05D0402940F00D82222A40F02D
:103D90000A82428D92B2002A00F0998090F83E206B
:103DA000402A40F0AF81026D7AB9C26C012A826C60
:103DB00004D1D2B21A61036D023304E0C2F30722C8
:103DC0001A61036D01330365EDE1026D012A02D131
:103DD000826CD2B2F4E7026D022A40F0E48190F8DE
:103DE0003D20222A04D11A6842F480721A60DAE176
:103DF00090F83D20212A40F0D68183E1002C00F08C
:103E0000D281970540F1CF81C16A90F83D20212AE7
:103E100040F0C981428D92B2002A40F0738104299A
:103E200022D0082920D011F5803F1DD0596821F4F7
:103E3000E061596090F83D3090F83E1003F00303C4
:103E40000B43036380F83E20202380F83D30FFF7CA
:103E500003F8A8E1080001000200010004001000BE
:103E600004000100800001005A6822F4E0625A60F8
:103E70001A6842F400721A6000232022036380F85B
:103E80003D2090F83E2080F83E30402ADFD1FFF7F9
:103E900064FE88E19E4D0D40002D44D0560542D56C
:103EA000002C40D190F83D20222A40F07C81428DA8
:103EB00092B2032A00F26E81023A012A1A6822F4B1
:103EC00080621A6008D81A6842F400621A605A6860
:103ED00022F480625A6066E1C26A022A02BF1A684E
:103EE00042F400621A605A6822F4E0625A60426A40
:103EF0001B69511C41621370438D013B9BB243858A
:103F000090F83D3090F83E2003F003031343036321
:103F1000202380F83D3090F83E30402B4FF00003D6
:103F200080F83E305DE0002C00F03D81950540F1C9
:103F30003A81C26A418D89B20329416A0BD1042AB0
:103F400004D0082A02D012F5803F51D11A6822F419
:103F500080621A604CE0448DA4B2022C48D1042A3D
:103F600018D0082A16D012F5803F13D01C68013AE9
:103F700024F480641C60012A9EBF1A6842F4807297
:103F80001A6090F83D2090F83E4002F00302224370
:103F9000026305E0122202631A6842F400721A609A
:103FA0001B694A1C42620B70438D013B9BB24385E7
:103FB000436A5A1C4262026812691A70438D026891
:103FC000013B9BB24385536823F440735360202325
:103FD00080F83D300023036390F83E2080F83E30A7
:103FE000402A02D1FFF7BAFDDDE0FEF753FFDAE029
:103FF0004A1C1B6942620B70D1E0464C0C4074B104
:1040000094050CD599699B6981F004011F06C1F3E1
:10401000800154BF8289028BFEF70AFFC3E03E4C49
:104020000C40002C32D0960530D590F83D205968D0
:1040300021F4E0615960002109915C6909941C68D0
:1040400044F001041C60099C1C68D2B224F4806412
:104050001C60A2F12803022B0AD8304BC362202334
:10406000016380F83D3080F83E10FEF7F3FE9AE0E1
:10407000036B222B02D0222A40F0958000232022BD
:10408000036380F83D2080F83E307AE0244E254CD2
:104090002E400C40002E49D0234D0D4055B3550500
:1040A00028D53CBB90F83D10428D92B2C9B2002A8F
:1040B00079D0426A541C446212781A61428D013AE6
:1040C00092B24285428D92B2002A6CD129296AD1DE
:1040D0005A6822F480625A6090F83D3090F83E2091
:1040E00003F0030313430363282380F83D30FEF7F6
:1040F000A9FE58E0002C56D0940554D5428D92B2BA
:10410000002A50D0426A511C416212781A6146E07E
:104110004000010002000100100001000000FFFF4C
:104120000400100004000100800001001F4D0D403C
:1041300055B3510528D53CBB90F83D20418D89B23F
:10414000D2B200292FD0416A1B694C1C44620B700B
:10415000438D013B9BB24385438D9BB21BBB2A2AF7
:1041600021D10268536823F48063536090F83D3096
:1041700090F83E2003F0030313430363282380F8E1
:104180003D30FEF763FE0EE06CB192050BD5428D1B
:1041900092B242B1426A1B69511C41621370438D55
:1041A000013B9BB243850BB0F0BD00BF4000010056
:1041B000F8B50368764A5E695D68324004464AB1E4
:1041C000EA0541BF026C42F0010202646FF48072A2
:1041D00048BF5A6116F4813F09D0EF0541BF226CF8
:1041E00042F0020222646FF4007248BF5A6116F472
:1041F000823F63D0E80561D594F83E70618D94F8F4
:104200003D20206B202F89B2D2B24CD100294AD157
:1042100002F0F701212903D0282A44D1212842D1D4
:1042200094F83D20E16A0429D2B201D0082919D1BD
:10423000282A17D1574AE2625A6822F4E0625A608B
:104240006FF480625A611A6822F480621A60002357
:1042500020222363204684F83D2084F83E30FEF778
:10426000F9FD2BE0212A26D14A4AE26294F83D204A
:1042700094F83E1002F003020A432263202284F8DD
:104280003D20002284F83E205A6822F4E0625A6001
:104290006FF480625A611A6822F480621A602046C4
:1042A000FEF7D0FD0AE0226C42F0040222641A6894
:1042B00042F400721A606FF480625A6116F4843F0F
:1042C0000AD0E90541BF236C43F008032364236847
:1042D00044BF6FF400625A61236C002B56D094F8EF
:1042E0003D30293B012B05D800232363282384F884
:1042F0003D300AE094F83D30602B1CBF202384F849
:104300003D300023236384F83E3023681A6822F48A
:1043100000621A601A68120517D55A68606B22F499
:1043200000625A6030B11C4B0365FFF7EBF9D0B166
:10433000606B07E0A06BB0B1174B0365FFF7E2F9C4
:1043400088B1A06B036D98470DE094F83D30602B69
:1043500006D1202384F83D302046FEF7ACFD02E074
:104360002046FEF79BFD94F83D30282B0ED1236CA0
:104370005B070BD5074BE362202200232363204613
:1043800084F83D2084F83E30FEF764FDF8BD00BFA0
:10439000000101000000FFFF9D430008806B0268E0
:1043A00008B5136823F480631360426B00234385D0
:1043B0001365826B136590F83D20602A4FF0200250
:1043C00080F83D2080F83E3002D1FEF774FD08BD34
:1043D000FEF764FD08BD00000368F7B5D907044681
:1043E00003D423689A0737D484E0A54B9A6802F077
:1043F0000C02042A07D09A6802F00C02082A0BD19A
:104400005B685B0208D59E4B1B689F03E9D5636818
:10441000002BE6D1012030E19A4B22791A706368B3
:104420006BB1FFF70FF90546954B1B689E03D8D477
:10443000FFF708F9401BC828F6D903201DE1FFF754
:1044400001F905468E4B1B689803CAD5FFF7FAF8A9
:10445000401BC828F6D9F0E7894B9A6812F00C0F78
:1044600007D09A6802F00C02082A16D15B6859023C
:1044700013D4834B1A68920702D5E268012AC9D186
:104480001968F82090FAA0F02269B0FA80F021F0C3
:10449000F80182400A431A602CE0E2687A4BDAB1F4
:1044A00001221A60FFF7CEF80546754803689F079A
:1044B00005D4FFF7C7F8401B0228F6D9BDE702680C
:1044C000F82191FAA1F12369B1FA81F122F0F80201
:1044D0008B40134303600DE01A60FFF7B3F8054605
:1044E000674B1B689E0705D5FFF7ACF8401B0228F9
:1044F000F6D9A2E72368180703D42368590744D5DF
:104500001FE06269614B72B101221A60FFF79AF8ED
:1045100005465B4B5B6F9A07EFD4FFF793F8401BA0
:104520000228F6D989E71A60FFF78CF80546544B44
:104530005B6F9B07E1D5FFF785F8401B0228F6D992
:104540007BE7002301934E4B1A6C42F080521A64B1
:104550001B6C4F4A03F080530193019B136843F493
:1045600080731360FFF76EF80546494B1B68DF0543
:104570000ED5484B227A1A70A368BBB1FFF762F8D8
:1045800005463F4B1B6F9E0708D5A269EAB959E063
:10459000FFF758F8401B0228E7D94EE7FFF752F81B
:1045A00041F28833401B9842EBD946E7FFF74AF8BF
:1045B0000546334B1B6F9807E7D5FFF743F841F2E9
:1045C0008833401B9842F4D937E72D4B9B6803F0A2
:1045D0000C03082B3FF41EAF2F4D0023022A2B6043
:1045E0003ED1FFF72FF806462548036899012BD4E2
:1045F00047F6C07797FAA7F74FF44036B7FA87F730
:1046000096FAA6F64FF07061B6FA86F691FAA1F125
:10461000E369226AB1FA81F11A43636ABB401A4323
:10462000A36A5B08013BB3401343E26A8A40134329
:10463000436001232B60FFF705F80446104B1B680D
:104640009A0107D5002018E0FEF7FCFF801B022826
:10465000CAD9F2E6FEF7F6FF001B0228EED9ECE617
:10466000FEF7F0FF0446064B1B689B01EAD5FEF7F8
:10467000E9FF001B0228F6D9DFE603B0F0BD00BF5A
:10468000003802400238024000004742800E474294
:1046900000700040703802406000474210B51C4C6A
:1046A000A36803F00C03042B2ED0082B2ED16268D4
:1046B00002F03F03626847F6C07112F4800F62682F
:1046C00091FAA1F147F6C07000EA020008BF114A52
:1046D000B1FA81F120FA01F00EBFB2FBF3F20E49FC
:1046E000B1FBF3F202FB00F3094A50684FF4403289
:1046F00092FAA2F200F44030B2FA82F2D0400130D5
:104700004000B3FBF0F010BD034810BD014810BDE0
:10471000003802400024F40000127A00584B1A6856
:1047200002F00F02914270B504460D460AD8216886
:10473000880710D55348836823F0F002A368134319
:10474000836008E0CAB21A701B6803F00F038B4243
:10475000EDD0012070BDC90706D4494B1A6802F09C
:104760000F0295425AD360E06368464A012B03D199
:10477000126812F4003F08E0991E0129126802D85D
:1047800012F0007F01E012F0020FE2D03D498A688A
:1047900022F0030213438B60FEF754FF6368012B82
:1047A00006460ED1374B9B6803F00C03042BD4D084
:1047B000FEF748FF41F28833801B9842F2D903206C
:1047C00070BD022B0DD12F4B9B6803F00C03082BFF
:1047D000C3D0FEF737FF41F28833801B9842F2D9ED
:1047E000EDE7032B14D1274B9B6803F00C030C2B34
:1047F000B3D0FEF727FF41F28833801B9842F2D9ED
:10480000DDE7FEF71FFF41F28833801B9842D6D8C0
:104810001C4B9B6813F00C0FF3D19EE7EAB21A70A1
:104820001B6803F00F03AB4293D121684A0706D5FA
:104830001448836823F4E052E368134383600B0752
:1048400041BF104A2169936823F4604344BF43EA9F
:10485000C1039360FFF722FF0A4BF0229B6892FA94
:10486000A2F203F0F003B2FA82F2D340064AD35C1C
:10487000D840064B18600F20FEF732F8002070BDBC
:10488000003C02400038024092C600089C01002013
:10489000084B4FF4E0529B6892FAA2F203F4E05303
:1048A000B2FA82F2D340044AD35C044A1068D8407A
:1048B000704700BF0038024092C600089C010020EB
:1048C000084B4FF460429B6892FAA2F203F46043F3
:1048D000B2FA82F2D340044AD35C044A1068D8404A
:1048E000704700BF0038024092C600089C010020BB
:1048F00070470000224A036890420ED0B0F1804F0A
:104900000BD0A2F57C42904207D002F58062904223
:1049100003D002F58062904214D14A6823F07003FC
:104920001343174A904225D0B0F1804F22D0154A48
:1049300090421FD002F5806290421BD002F5806247
:10494000904217D0104A904214D002F580629042F3
:1049500010D002F5806290420CD003608B68C36275
:104960000B688362064B984204BF0B690363012303
:1049700043617047CA6823F440731343EDE700BFF7
:1049800000000140000400400040014010B5044612
:10499000A0B190F8393003F0FF021BB980F838203D
:1049A000FFF7A6FF022384F839302068211DFFF7A6
:1049B000A1FF012384F83930002010BD012010BD73
:1049C00010B50123046A8B4024EA03030362036ADF
:1049D0008A401343036210BD10B5044601220068EB
:1049E000FFF7EEFF2368064A934202BF5A6C42F477
:1049F00000425A641A6842F001021A60002010BD99
:104A0000000001402DE9F04706683369044623F4AD
:104A10004052C3682169C0691343A2683361F368D7
:104A20001143626923F416430A43024323F00C0343
:104A30001343F360736923F44072A369B0F5004F28
:104A400043EA020373617B4B7CD19E4203D003F5A2
:104A500080639E4231D1FFF733FF636819254FEA27
:104A600043086843B0FBF8F8FFF72AFF676868431C
:104A70007F00B0FBF7F7FFF723FF63684FF064098F
:104A80005B006843B0FBF3F0B0FBF9F009FB107773
:104A9000FFF716FFB8FBF9F86268FF003237B7FB83
:104AA000F9F707F0F807684352004FEA08187F004B
:104AB000B0FBF2FAFFF704FF30E0FFF7E9FE6368AE
:104AC00019254FEA43086843B0FBF8F8FFF7E0FE0A
:104AD000676868437F00B0FBF7F7FFF7D9FE6368AC
:104AE0004FF064095B006843B0FBF3F0B0FBF9F0F2
:104AF00009FB1077FFF7CCFEB8FBF9F8FF006268FE
:104B00003237B7FBF9F707F0F807684352004FEA6E
:104B100008187F00B0FBF2FAFFF7BAFE4543606861
:104B20004000B5FBF0F0B0FBF9F009FB10A2D20099
:104B30003232B2FBF9F303F0070343441F44B7607A
:104B4000BDE8F0879E4202D03B4B9E422ED1FFF73C
:104B5000B7FE676819256843BF00B0FBF7F7FFF79A
:104B6000AFFE636868439B00B0FBF3F8FFF7A8FE55
:104B700063684FF0640968439B00B0FBF3F0B0FB3F
:104B8000F9F009FB10831B013233B3FBF9F303F097
:104B9000F008FFF795FEB7FBF9F7626868439200EB
:104BA0003F01B0FBF2FAFFF78BFE2DE0FFF770FE3E
:104BB000676819256843BF00B0FBF7F7FFF768FE89
:104BC000636868439B00B0FBF3F8FFF761FE63681E
:104BD0004FF064099B006843B0FBF3F0B0FBF9F0C1
:104BE00009FB10831B013233B3FBF9F303F0F00828
:104BF000FFF74EFEB7FBF9F76268684392003F018A
:104C0000B0FBF2FAFFF744FE454360688000B5FB55
:104C1000F0F0B0FBF9F009FB10A212013232B2FB46
:104C2000F9F202F00F0208EB02033B44B360BDE867
:104C3000F08700BF0010014000140140704710B51C
:104C4000044640B390F8393003F0FF021BB980F8F6
:104C50003820FFF7F3FF2268242384F83930D36823
:104C600023F40053D3602046FFF7CCFE23681A6973
:104C700022F490421A615A6922F02A025A61DA68D3
:104C800042F40052DA6000202023E06384F83930D7
:104C900084F83A3010BD012010BD0000174A1849B1
:104CA000936803F00C03042B03D0082B03D0154B9F
:104CB00018E0154B16E05068536810F4800F03F0AD
:104CC0003F03506814BF104A0E4AB2FBF3F30B4A7D
:104CD0005268C2F30142C0F38810013243435200CC
:104CE000B3FBF2F30B60054B084A9B68C3F3031355
:104CF000D25C0B68D3400B60704700BF00380240A5
:104D00009C0100200024F40000127A00A2C60008D2
:104D100010B594B0204B002101911A6C42F08052E2
:104D20001A641B6C1D4A03F080530193019B02918E
:104D3000136823F4404343F400431360136803F4FF
:104D400040430293029B0123089300B1052309937A
:104D50004FF480030F93042302241093C022129374
:104D600008A808230E9411921393FFF735FB78B926
:104D70000F23039305904FF480530790032103A85A
:104D800004940693FFF7CAFCB0FA80F0400900E0F3
:104D9000002014B010BD00BF003802400070004079
:104DA00070B594B00024204B01941A6C42F08052EC
:104DB0001A641B6C1D4A03F080530193019B0294FB
:104DC000136823F4404343F40043136013680994C9
:104DD00003F440430293029B0F940123C0220B93E0
:104DE000102303250C9302260823119208A80422FD
:104DF00008950E96109312921393FFF7EDFA78B977
:104E00000F23039305904FF480530790294603A87E
:104E100004960693FFF782FCB0FA80F0400900E0A8
:104E2000204614B070BD00BF003802400070004042
:104E300008B50120FFF76CFF30B9FFF769FF18B91B
:104E4000FFF7AEFF00B9FEE708BD0000174AD2F831
:104E5000883010B543F47003154CC2F888302368CD
:104E6000002143F001032360A160236823F08473D1
:104E700023F4803323600F4B6360236823F4802383
:104E800023604FF00063E16093600B4B0B4A1A60A4
:104E9000FEF7B6FBFFF7CCFF236A43F0080323625B
:104EA000236A23F00803236210BD00BF00ED00E079
:104EB00000380240103000249C0100200024F4003F
:104EC000054B186830B901221A60044B044A1A6075
:104ED000FDF706BD704700BF00110020C410002080
:104EE000000C004008B5044B1B680BB9FFF7E8FF46
:104EF000024B586A08BD00BF00110020000C0040A2
:104F0000034B1B685863DA6842F00202DA607047AC
:104F1000C4100020034B1A68D36823F00203D36047
:104F2000704700BFC4100020024B1B686FF00202E4
:104F30001A617047C410002010B580B1146853681E
:104F40000CB9DA070BD513F0010F4FEA63031CBF4E
:104F5000C258145918442346BDE81040184710BDE4
:104F6000F7B51A4B036000230F460093019302A983
:104F700003610446164600F1180211E9030082E8B5
:104F800003001349216248F207016162E362A462EF
:104F90002263104A6263BFF36F8FBFF34F8F04F138
:104FA0003C0584F8383019462846902200F01AFD56
:104FB000094BC4F8CC30284639463246FDF7DCFDB3
:104FC000064B20461C6003B0F0BD00BFC0C6000801
:104FD00001A090E8394F0008A086010004110020CC
:104FE000036870B5094D1B68044698472B68A342B7
:104FF00006D004F13C00D4F8CC10FDF74BFD2C603A
:10500000236820465B68BDE8704018470411002003
:10501000F7B51D46036804461B680F4616469847B9
:105020002046FFF7DDFF9DF8203083F00103324674
:10503000009339462B4604F13C00FDF7ADFE236892
:1050400006465B6820469847A81B18BF012003B09E
:10505000F0BDF7B51D46036804461B680F461646AB
:1050600098472046FFF7BCFF9DF8203083F00103EE
:105070003246009339462B4604F13C00FDF740FED2
:10508000236806465B6820469847A81B18BF012086
:1050900003B0F0BD08B50248FEF764F908BD00BFD3
:1050A0000811002008B50248FEF75CF908BD00BFF2
:1050B0000811002070470368184708B10B680360A7
:1050C0007047704738B505460C4600F079F9281D41
:1050D0002146FDF7B2FABDE8384000F09BB9C3683D
:1050E00010B504460BB19B689847204610BD0000E0
:1050F00010B5084B044640F8143BFDF797FB04F14C
:105100003400FFF7ECFF04F12400FFF7E8FF20462E
:1051100010BD00BFE8C6000810B50446FFF7E8FF61
:105120002046FEF71BF9204610BD000038B50446A6
:105130000D46FFF7D4FF2CB10DB9E56038BD024B29
:105140002560E36038BD00BFD0C600082DE9F041FE
:105150000546174B45F8043B04464FF010080E4631
:10516000424604F114072846002100F03BFC424669
:105170003846DFF84480002100F034FC002323632C
:10518000236404F124004146FFF7D0FF04F134000A
:105190004146FFF7CBFF3146064A23463846FDF726
:1051A000BBFA2846314600F053F82046BDE8F081AE
:1051B000E8C60008E5510008B5500008C36810B5FE
:1051C00004462BB90548064940F2E71200F0D4F82E
:1051D000E36820461B68BDE810401847F0C6000889
:1051E000F5C60008012908B502D0022902D008BD81
:1051F000243000E03430FFF7E1FF08BD70B50E4603
:1052000004461546FDF704FA013609D02046002170
:10521000FDF718FA20462946BDE87040FDF70DBAA3
:1052200070BD000038B5B0F90030013304460D46BA
:1052300004D105480549342200F09EF8E26863680D
:1052400005B91B04136038BD43C2000827C300081A
:105250000022FFF7D3BF70B50E4604461546FDF792
:10526000D7F901360DD020462946FFF7DBFF20464F
:105270000121FDF7E7F920460021BDE87040FDF768
:10528000DCB970BD0022FFF7E6BF000010B5044690
:10529000013001D110BD0C31B1F900305A1C0BD0D6
:1052A000A342F8D120468968FDF7E6FE204600219A
:1052B000BDE81040FDF70EBF0248BDE8104000F009
:1052C0006DB800BF3FC70008884208B50AD0431C2C
:1052D00007D0013106D0044800F060F84FF0FF30ED
:1052E00008BD084608BD00BF50C70008B1F900302E
:1052F0005A1C05D0834201D1486870470C31F5E74C
:1053000018467047421C10B5044607D0FFF7EEFF61
:10531000431C044602D1024800F040F8204610BD6C
:1053200061C70008036870B5DB6804469847636886
:105330005A6823681AB99B68BDE8704018475B68D3
:1053400015689847281A0028636808DC5A6891682D
:1053500059601B68002BEAD050689847E7E721683E
:105360005A680B691068BDE8704018470148FFF79C
:10537000D9BF00BFB4C7000870B506460D46144635
:1053800000F01EF831462A4623460348FDF7F0FD9B
:10539000BDE87040FDF798BDBCC700080FB407B565
:1053A00004A951F8040B0191FDF7BAFD0120FDF7A6
:1053B000B9FFEFF3108000F0010080F001007047AA
:1053C00038B5FFF7F6FF80F00100C5B272B60C4C9D
:1053D00023680BB90B4B1D702368013304D10A48B5
:1053E0000A493322FFF7C8FF23682BB125B90848C3
:1053F00006493722FFF7C0FF23680133236038BD19
:10540000181100201C110020EDC7000813C8000867
:1054100056C8000810B50A4C236883B1FFF7C9FFCE
:1054200020B1084808494822FFF7A6FF2368013B3E
:10543000236023681BB9054B1B7803B962B610BD06
:105440001811002056C8000813C800081C110020BD
:1054500038B50446FFF746FD0546FFF743FD401B00
:10546000A042FAD338BD000007EE100ADFED047A3F
:1054700067EE277AFDEEE77A17EE900AFFF7E8BFAE
:10548000002474494FF47A735843FFF7E1BF0000DA
:10549000014B1868704700BFA0010020B1F90C3023
:1054A0009AB22DE9F0410C461107804644D4626857
:1054B00043F40063002AA38159DDA56A002D53D06F
:1054C00000229BB2D8F80060E169C8F8002013F40C
:1054D000805240F0838001234046A847421C4AD0B6
:1054E000A389A56AE1695B0705D56268236B801A09
:1054F0000BB1E36BC01A024600234046A847471C85
:1055000045D0B4F90C302269226023F400630022F4
:10551000A381DB04626000D52065216BC8F80060C0
:1055200011B304F14003994202D0404605F0E4FE75
:1055300000202063BDE8F0812669AEB125682660B1
:1055400092070CBF63690023AD1BA3600AE02B46E2
:105550003246676AE1694046B8470028A5EB000576
:1055600006442BDD002DF2DC0020BDE8F081E26B6B
:10557000002AA2DCF8E7D8F80030002BB0D01D2BB1
:1055800001D0162B2CD1C8F800600020EDE7D8F828
:1055900000101D291AD8154BB4F90C20CB40DB4361
:1055A00013F0010314D1256922F40062C4E9005309
:1055B000D504A281B1D50029AFD1ADE7A38943F0CD
:1055C0004003A3814FF0FF30BDE8F081B4F90C2017
:1055D00042F04002A2814FF0FF30C6E7206D82E723
:1055E000A38943F04003A381BFE700BF010040202F
:1055F00038B50D46044608B1836BA3B1B5F90C006C
:10560000B8B16B6EDB0701D481051AD52046294657
:10561000FFF744FF6B6EDA07044602D4AB899B05A3
:105620000AD5204638BD00F051F8B5F90C00002825
:10563000E7D10446204638BDA86D00F0D3F82046D7
:1056400038BDA86D00F0CCF8E0E700BF20B1054BF5
:1056500001461868FFF7CCBF034B0449186800F0F7
:105660006DB800BFA00100206CC80008F15500080B
:1056700010B5002304468181C281C0E900338360F4
:105680004366C0E904338361194608225C3000F0A8
:10569000A9F907480749084A084BE362C4E90740EB
:1056A000C4E9091204F15800BDE8104000F094B8B4
:1056B000A15A0008C55A0008015B0008215B0008D8
:1056C000014900F03BB800BF2D82000810B5044628
:1056D000124800F085F8A26BD2B904F53B7310486C
:1056E000C4F8E8320321C4F8E022E063C4F8E4120D
:1056F00060680421FFF7BCFF01220921A068FFF7C1
:10570000B7FF02221221E068FFF7B2FF0123A36373
:105710000248BDE8104000F065B800BFEC11002061
:10572000C1560008014800F05BB800BF001200201D
:10573000014800F057B800BF001200202DE9F843DF
:1057400010F538771FD0884606464FF00009D7E994
:105750000154013D11D4A389012B05F1FF352146E8
:10576000304606D9B4F90E30013302D0C04749EAB9
:1057700000096B1C04F16804EDD13F68002FE6D1ED
:105780004846BDE8F883B9464846BDE8F88300BFFF
:1057900070B50D4E0D4D761BB61006D000240134A9
:1057A00055F8043B9847A642F9D1094E094D761B9E
:1057B00006F082FBB61006D00024013455F8043BF5
:1057C0009847A642F9D170BD4C0B00204C0B00202D
:1057D000540B00204C0B0020704700BF704700BFE7
:1057E000704700BF704700BF024B0146186805F0C4
:1057F0007FBD00BFA0010020024B0146186805F0E4
:105800007BBD00BFA00100200000000000000000E0
:1058100001F0FF01102A2BDB10F0070F08D010F861
:10582000013B013A8B422DD010F0070F42B3F6D165
:10583000F0B441EA012141EA014122F007047FF07E
:1058400000070023F0E80256083C85EA010586EAD5
:10585000010685FA47F5A3FA87F586FA47F6A5FA11
:1058600087F68EB9EED1F0BC01F0FF0102F007021D
:1058700032B110F8013B013A83EA010313B1F8D1C8
:105880000020704701387047002D06BF35460338A9
:10589000073815F0010F07D1013015F4807F02BFE2
:1058A000013015F4C03F0130F0BC0138704700BF33
:1058B000844641EA000313F003036DD1403A41D31B
:1058C00051F8043B40F8043B51F8043B40F8043BDA
:1058D00051F8043B40F8043B51F8043B40F8043BCA
:1058E00051F8043B40F8043B51F8043B40F8043BBA
:1058F00051F8043B40F8043B51F8043B40F8043BAA
:1059000051F8043B40F8043B51F8043B40F8043B99
:1059100051F8043B40F8043B51F8043B40F8043B89
:1059200051F8043B40F8043B51F8043B40F8043B79
:1059300051F8043B40F8043B51F8043B40F8043B69
:10594000403ABDD2303211D351F8043B40F8043B09
:1059500051F8043B40F8043B51F8043B40F8043B49
:1059600051F8043B40F8043B103AEDD20C3205D319
:1059700051F8043B40F8043B043AF9D2043208D011
:10598000D2071CBF11F8013B00F8013B01D30B8883
:1059900003806046704700BF082A13D38B078DD061
:1059A00010F003038AD0C3F10403D21ADB071CBF33
:1059B00011F8013B00F8013B80D331F8023B20F89D
:1059C000023B7BE7043AD9D3013A11F8013B00F8D6
:1059D000013BF9D20B7803704B7843708B7883705E
:1059E00060467047F0B4860743D0541E002A3ED06C
:1059F000CAB2034602E014F1FF3438D303F8012B96
:105A00009D07F8D1032C2BD9CDB245EA05250F2CE3
:105A100045EA054516D9A4F110073F0903F1200610
:105A200006EB071603F1100242E9045542E902555C
:105A30001032B242F8D104F00F040137032C03EB0B
:105A400007130DD91E462246043A032A46F8045B82
:105A5000FAD8221F22F003020432134404F0030494
:105A60002CB1C9B21C4403F8011B9C42FBD1F0BC11
:105A7000704714460346C5E70FB400B5074983B025
:105A800004AB086853F8042B8168019300F0C8F850
:105A900003B05DF804EB04B0704700BFA001002024
:105AA00010B50C46B1F90E1002F0EEFF002803DB32
:105AB000236D0344236510BDA38923F48053A38180
:105AC00010BD00BF2DE9F0411646B1F90C201F466C
:105AD000D3050C460546B1F90E1007D50022022366
